{
  "_format": "hh-sol-artifact-1",
  "contractName": "StudentRegistry",
  "sourceName": "contracts/StudentRegistry.sol",
  "abi": [
    {
      "inputs": [],
      "stateMutability": "nonpayable",
      "type": "constructor"
    },
    {
      "anonymous": false,
      "inputs": [
        {
          "indexed": false,
          "internalType": "uint256",
          "name": "id",
          "type": "uint256"
        },
        {
          "indexed": false,
          "internalType": "string",
          "name": "name",
          "type": "string"
        }
      ],
      "name": "StudentAdded",
      "type": "event"
    },
    {
      "anonymous": false,
      "inputs": [
        {
          "indexed": false,
          "internalType": "uint256",
          "name": "id",
          "type": "uint256"
        }
      ],
      "name": "StudentDeleted",
      "type": "event"
    },
    {
      "anonymous": false,
      "inputs": [
        {
          "indexed": false,
          "internalType": "uint256",
          "name": "id",
          "type": "uint256"
        },
        {
          "indexed": false,
          "internalType": "string",
          "name": "name",
          "type": "string"
        }
      ],
      "name": "StudentUpdated",
      "type": "event"
    },
    {
      "inputs": [
        {
          "internalType": "string",
          "name": "_name",
          "type": "string"
        },
        {
          "internalType": "string",
          "name": "_surname",
          "type": "string"
        },
        {
          "internalType": "uint256",
          "name": "_yearOfAdmission",
          "type": "uint256"
        },
        {
          "internalType": "string",
          "name": "_contacts",
          "type": "string"
        },
        {
          "internalType": "string",
          "name": "_village",
          "type": "string"
        }
      ],
      "name": "addStudent",
      "outputs": [],
      "stateMutability": "nonpayable",
      "type": "function"
    },
    {
      "inputs": [
        {
          "internalType": "uint256",
          "name": "_id",
          "type": "uint256"
        }
      ],
      "name": "deleteStudent",
      "outputs": [],
      "stateMutability": "nonpayable",
      "type": "function"
    },
    {
      "inputs": [
        {
          "internalType": "uint256",
          "name": "_id",
          "type": "uint256"
        }
      ],
      "name": "getStudent",
      "outputs": [
        {
          "components": [
            {
              "internalType": "uint256",
              "name": "id",
              "type": "uint256"
            },
            {
              "internalType": "string",
              "name": "name",
              "type": "string"
            },
            {
              "internalType": "string",
              "name": "surname",
              "type": "string"
            },
            {
              "internalType": "uint256",
              "name": "yearOfAdmission",
              "type": "uint256"
            },
            {
              "internalType": "string",
              "name": "contacts",
              "type": "string"
            },
            {
              "internalType": "string",
              "name": "village",
              "type": "string"
            }
          ],
          "internalType": "struct StudentRegistry.Student",
          "name": "",
          "type": "tuple"
        }
      ],
      "stateMutability": "view",
      "type": "function"
    },
    {
      "inputs": [],
      "name": "owner",
      "outputs": [
        {
          "internalType": "address",
          "name": "",
          "type": "address"
        }
      ],
      "stateMutability": "view",
      "type": "function"
    },
    {
      "inputs": [],
      "name": "studentCount",
      "outputs": [
        {
          "internalType": "uint256",
          "name": "",
          "type": "uint256"
        }
      ],
      "stateMutability": "view",
      "type": "function"
    },
    {
      "inputs": [
        {
          "internalType": "uint256",
          "name": "",
          "type": "uint256"
        }
      ],
      "name": "students",
      "outputs": [
        {
          "internalType": "uint256",
          "name": "id",
          "type": "uint256"
        },
        {
          "internalType": "string",
          "name": "name",
          "type": "string"
        },
        {
          "internalType": "string",
          "name": "surname",
          "type": "string"
        },
        {
          "internalType": "uint256",
          "name": "yearOfAdmission",
          "type": "uint256"
        },
        {
          "internalType": "string",
          "name": "contacts",
          "type": "string"
        },
        {
          "internalType": "string",
          "name": "village",
          "type": "string"
        }
      ],
      "stateMutability": "view",
      "type": "function"
    },
    {
      "inputs": [
        {
          "internalType": "uint256",
          "name": "_id",
          "type": "uint256"
        },
        {
          "internalType": "string",
          "name": "_name",
          "type": "string"
        },
        {
          "internalType": "string",
          "name": "_surname",
          "type": "string"
        },
        {
          "internalType": "uint256",
          "name": "_yearOfAdmission",
          "type": "uint256"
        },
        {
          "internalType": "string",
          "name": "_contacts",
          "type": "string"
        },
        {
          "internalType": "string",
          "name": "_village",
          "type": "string"
        }
      ],
      "name": "updateStudent",
      "outputs": [],
      "stateMutability": "nonpayable",
      "type": "function"
    }
  ],
  "bytecode": "0x608060405234801561001057600080fd5b50336000806101000a81548173ffffffffffffffffffffffffffffffffffffffff021916908373ffffffffffffffffffffffffffffffffffffffff160217905550611726806100606000396000f3fe608060405234801561001057600080fd5b506004361061007d5760003560e01c80638da5cb5b1161005b5780638da5cb5b146101035780639bc51a1714610121578063b645307d1461013d578063e581f9ee146101595761007d565b806306ead22e146100825780631a561651146100b7578063642f9163146100d3575b600080fd5b61009c60048036038101906100979190610c9d565b610177565b6040516100ae96959493929190610d69565b60405180910390f35b6100d160048036038101906100cc9190610f1b565b6103d3565b005b6100ed60048036038101906100e89190610c9d565b61056e565b6040516100fa91906110fd565b60405180910390f35b61010b610848565b6040516101189190611160565b60405180910390f35b61013b6004803603810190610136919061117b565b61086c565b005b61015760048036038101906101529190610c9d565b610a3b565b005b610161610bba565b60405161016e9190611278565b60405180910390f35b60016020528060005260406000206000915090508060000154908060010180546101a0906112c2565b80601f01602080910402602001604051908101604052809291908181526020018280546101cc906112c2565b80156102195780601f106101ee57610100808354040283529160200191610219565b820191906000526020600020905b8154815290600101906020018083116101fc57829003601f168201915b50505050509080600201805461022e906112c2565b80601f016020809104026020016040519081016040528092919081815260200182805461025a906112c2565b80156102a75780601f1061027c576101008083540402835291602001916102a7565b820191906000526020600020905b81548152906001019060200180831161028a57829003601f168201915b5050505050908060030154908060040180546102c2906112c2565b80601f01602080910402602001604051908101604052809291908181526020018280546102ee906112c2565b801561033b5780601f106103105761010080835404028352916020019161033b565b820191906000526020600020905b81548152906001019060200180831161031e57829003601f168201915b505050505090806005018054610350906112c2565b80601f016020809104026020016040519081016040528092919081815260200182805461037c906112c2565b80156103c95780601f1061039e576101008083540402835291602001916103c9565b820191906000526020600020905b8154815290600101906020018083116103ac57829003601f168201915b5050505050905086565b60008054906101000a900473ffffffffffffffffffffffffffffffffffffffff1673ffffffffffffffffffffffffffffffffffffffff163373ffffffffffffffffffffffffffffffffffffffff1614610461576040517f08c379a00000000000000000000000000000000000000000000000000000000081526004016104589061133f565b60405180910390fd5b600260008154809291906104749061138e565b91905055506040518060c001604052806002548152602001868152602001858152602001848152602001838152602001828152506001600060025481526020019081526020016000206000820151816000015560208201518160010190816104dc9190611582565b5060408201518160020190816104f29190611582565b506060820151816003015560808201518160040190816105129190611582565b5060a08201518160050190816105289190611582565b509050507f9682c9a3e9734a1f8d3a641838a5d7862f4eb29fcbf4bd04e0ccac28ffcfd2276002548660405161055f929190611654565b60405180910390a15050505050565b610576610bc0565b60008211801561058857506002548211155b6105c7576040517f08c379a00000000000000000000000000000000000000000000000000000000081526004016105be906116d0565b60405180910390fd5b600160008381526020019081526020016000206040518060c0016040529081600082015481526020016001820180546105ff906112c2565b80601f016020809104026020016040519081016040528092919081815260200182805461062b906112c2565b80156106785780601f1061064d57610100808354040283529160200191610678565b820191906000526020600020905b81548152906001019060200180831161065b57829003601f168201915b50505050508152602001600282018054610691906112c2565b80601f01602080910402602001604051908101604052809291908181526020018280546106bd906112c2565b801561070a5780601f106106df5761010080835404028352916020019161070a565b820191906000526020600020905b8154815290600101906020018083116106ed57829003601f168201915b505050505081526020016003820154815260200160048201805461072d906112c2565b80601f0160208091040260200160405190810160405280929190818152602001828054610759906112c2565b80156107a65780601f1061077b576101008083540402835291602001916107a6565b820191906000526020600020905b81548152906001019060200180831161078957829003601f168201915b505050505081526020016005820180546107bf906112c2565b80601f01602080910402602001604051908101604052809291908181526020018280546107eb906112c2565b80156108385780601f1061080d57610100808354040283529160200191610838565b820191906000526020600020905b81548152906001019060200180831161081b57829003601f168201915b5050505050815250509050919050565b60008054906101000a900473ffffffffffffffffffffffffffffffffffffffff1681565b60008054906101000a900473ffffffffffffffffffffffffffffffffffffffff1673ffffffffffffffffffffffffffffffffffffffff163373ffffffffffffffffffffffffffffffffffffffff16146108fa576040517f08c379a00000000000000000000000000000000000000000000000000000000081526004016108f19061133f565b60405180910390fd5b60008611801561090c57506002548611155b61094b576040517f08c379a0000000000000000000000000000000000000000000000000000000008152600401610942906116d0565b60405180910390fd5b6040518060c0016040528087815260200186815260200185815260200184815260200183815260200182815250600160008881526020019081526020016000206000820151816000015560208201518160010190816109aa9190611582565b5060408201518160020190816109c09190611582565b506060820151816003015560808201518160040190816109e09190611582565b5060a08201518160050190816109f69190611582565b509050507fc7d4c0b5c4fcf8b82fff7f9f436f7bf5d560f397d28ff279d86da8ca7c4f71fa8686604051610a2b929190611654565b60405180910390a1505050505050565b60008054906101000a900473ffffffffffffffffffffffffffffffffffffffff1673ffffffffffffffffffffffffffffffffffffffff163373ffffffffffffffffffffffffffffffffffffffff1614610ac9576040517f08c379a0000000000000000000000000000000000000000000000000000000008152600401610ac09061133f565b60405180910390fd5b600081118015610adb57506002548111155b610b1a576040517f08c379a0000000000000000000000000000000000000000000000000000000008152600401610b11906116d0565b60405180910390fd5b60016000828152602001908152602001600020600080820160009055600182016000610b469190610bf6565b600282016000610b569190610bf6565b6003820160009055600482016000610b6e9190610bf6565b600582016000610b7e9190610bf6565b50507f34de6b871245ed0a89b82912e8e5ee6d9c3104b3e5bb1d67a71ad7e68239e41c81604051610baf9190611278565b60405180910390a150565b60025481565b6040518060c001604052806000815260200160608152602001606081526020016000815260200160608152602001606081525090565b508054610c02906112c2565b6000825580601f10610c145750610c33565b601f016020900490600052602060002090810190610c329190610c36565b5b50565b5b80821115610c4f576000816000905550600101610c37565b5090565b6000604051905090565b600080fd5b600080fd5b6000819050919050565b610c7a81610c67565b8114610c8557600080fd5b50565b600081359050610c9781610c71565b92915050565b600060208284031215610cb357610cb2610c5d565b5b6000610cc184828501610c88565b91505092915050565b610cd381610c67565b82525050565b600081519050919050565b600082825260208201905092915050565b60005b83811015610d13578082015181840152602081019050610cf8565b60008484015250505050565b6000601f19601f8301169050919050565b6000610d3b82610cd9565b610d458185610ce4565b9350610d55818560208601610cf5565b610d5e81610d1f565b840191505092915050565b600060c082019050610d7e6000830189610cca565b8181036020830152610d908188610d30565b90508181036040830152610da48187610d30565b9050610db36060830186610cca565b8181036080830152610dc58185610d30565b905081810360a0830152610dd98184610d30565b9050979650505050505050565b600080fd5b600080fd5b7f4e487b7100000000000000000000000000000000000000000000000000000000600052604160045260246000fd5b610e2882610d1f565b810181811067ffffffffffffffff82111715610e4757610e46610df0565b5b80604052505050565b6000610e5a610c53565b9050610e668282610e1f565b919050565b600067ffffffffffffffff821115610e8657610e85610df0565b5b610e8f82610d1f565b9050602081019050919050565b82818337600083830152505050565b6000610ebe610eb984610e6b565b610e50565b905082815260208101848484011115610eda57610ed9610deb565b5b610ee5848285610e9c565b509392505050565b600082601f830112610f0257610f01610de6565b5b8135610f12848260208601610eab565b91505092915050565b600080600080600060a08688031215610f3757610f36610c5d565b5b600086013567ffffffffffffffff811115610f5557610f54610c62565b5b610f6188828901610eed565b955050602086013567ffffffffffffffff811115610f8257610f81610c62565b5b610f8e88828901610eed565b9450506040610f9f88828901610c88565b935050606086013567ffffffffffffffff811115610fc057610fbf610c62565b5b610fcc88828901610eed565b925050608086013567ffffffffffffffff811115610fed57610fec610c62565b5b610ff988828901610eed565b9150509295509295909350565b61100f81610c67565b82525050565b600082825260208201905092915050565b600061103182610cd9565b61103b8185611015565b935061104b818560208601610cf5565b61105481610d1f565b840191505092915050565b600060c0830160008301516110776000860182611006565b506020830151848203602086015261108f8282611026565b915050604083015184820360408601526110a98282611026565b91505060608301516110be6060860182611006565b50608083015184820360808601526110d68282611026565b91505060a083015184820360a08601526110f08282611026565b9150508091505092915050565b60006020820190508181036000830152611117818461105f565b905092915050565b600073ffffffffffffffffffffffffffffffffffffffff82169050919050565b600061114a8261111f565b9050919050565b61115a8161113f565b82525050565b60006020820190506111756000830184611151565b92915050565b60008060008060008060c0878903121561119857611197610c5d565b5b60006111a689828a01610c88565b965050602087013567ffffffffffffffff8111156111c7576111c6610c62565b5b6111d389828a01610eed565b955050604087013567ffffffffffffffff8111156111f4576111f3610c62565b5b61120089828a01610eed565b945050606061121189828a01610c88565b935050608087013567ffffffffffffffff81111561123257611231610c62565b5b61123e89828a01610eed565b92505060a087013567ffffffffffffffff81111561125f5761125e610c62565b5b61126b89828a01610eed565b9150509295509295509295565b600060208201905061128d6000830184610cca565b92915050565b7f4e487b7100000000000000000000000000000000000000000000000000000000600052602260045260246000fd5b600060028204905060018216806112da57607f821691505b6020821081036112ed576112ec611293565b5b50919050565b7f4e6f7420617574686f72697a6564000000000000000000000000000000000000600082015250565b6000611329600e83610ce4565b9150611334826112f3565b602082019050919050565b600060208201905081810360008301526113588161131c565b9050919050565b7f4e487b7100000000000000000000000000000000000000000000000000000000600052601160045260246000fd5b600061139982610c67565b91507fffffffffffffffffffffffffffffffffffffffffffffffffffffffffffffffff82036113cb576113ca61135f565b5b600182019050919050565b60008190508160005260206000209050919050565b60006020601f8301049050919050565b600082821b905092915050565b6000600883026114387fffffffffffffffffffffffffffffffffffffffffffffffffffffffffffffffff826113fb565b61144286836113fb565b95508019841693508086168417925050509392505050565b6000819050919050565b600061147f61147a61147584610c67565b61145a565b610c67565b9050919050565b6000819050919050565b61149983611464565b6114ad6114a582611486565b848454611408565b825550505050565b600090565b6114c26114b5565b6114cd818484611490565b505050565b5b818110156114f1576114e66000826114ba565b6001810190506114d3565b5050565b601f82111561153657611507816113d6565b611510846113eb565b8101602085101561151f578190505b61153361152b856113eb565b8301826114d2565b50505b505050565b600082821c905092915050565b60006115596000198460080261153b565b1980831691505092915050565b60006115728383611548565b9150826002028217905092915050565b61158b82610cd9565b67ffffffffffffffff8111156115a4576115a3610df0565b5b6115ae82546112c2565b6115b98282856114f5565b600060209050601f8311600181146115ec57600084156115da578287015190505b6115e48582611566565b86555061164c565b601f1984166115fa866113d6565b60005b82811015611622578489015182556001820191506020850194506020810190506115fd565b8683101561163f578489015161163b601f891682611548565b8355505b6001600288020188555050505b505050505050565b60006040820190506116696000830185610cca565b818103602083015261167b8184610d30565b90509392505050565b7f53747564656e7420646f6573206e6f7420657869737400000000000000000000600082015250565b60006116ba601683610ce4565b91506116c582611684565b602082019050919050565b600060208201905081810360008301526116e9816116ad565b905091905056fea264697066735822122087fcbd112c78c4941f61a8c2fedad2766275258183ec3195fd318b5846a002cc64736f6c63430008120033",
  "linkReferences": {},
  "deployedLinkReferences": {}
}